{
  "contractName": "PeoplePowerTokenSale",
  "abi": [
    {
      "inputs": [
        {
          "internalType": "contract PeoplePowerToken",
          "name": "_tokenContract",
          "type": "address"
        }
      ],
      "payable": false,
      "stateMutability": "nonpayable",
      "type": "constructor"
    },
    {
      "constant": true,
      "inputs": [],
      "name": "tokenContract",
      "outputs": [
        {
          "internalType": "contract PeoplePowerToken",
          "name": "",
          "type": "address"
        }
      ],
      "payable": false,
      "stateMutability": "view",
      "type": "function"
    }
  ],
  "bytecode": "0x608060405234801561001057600080fd5b506040516101633803806101638339818101604052602081101561003357600080fd5b8101908080519060200190929190505050336000806101000a81548173ffffffffffffffffffffffffffffffffffffffff021916908373ffffffffffffffffffffffffffffffffffffffff1602179055505060d0806100936000396000f3fe6080604052348015600f57600080fd5b506004361060285760003560e01c806355a373d614602d575b600080fd5b60336075565b604051808273ffffffffffffffffffffffffffffffffffffffff1673ffffffffffffffffffffffffffffffffffffffff16815260200191505060405180910390f35b600160009054906101000a900473ffffffffffffffffffffffffffffffffffffffff168156fea265627a7a72315820c25550b38926d1b7dcaa1b6c0f65f6e06471a06554d0cfc0c4427ac103a6b9ff64736f6c63430005100032",
  "source": "// SPDX-License-Identifier: MIT\npragma solidity >=0.4.22 <0.9.0;\n\nimport './PeoplePowerToken.sol';\n\ncontract PeoplePowerTokenSale {\n    address admin;\n    PeoplePowerToken public tokenContract;\n\n    constructor (PeoplePowerToken _tokenContract) public {\n        admin = msg.sender;\n       // tokenContract = _tokenContract;\n    }\n}\n",
  "sourcePath": "/home/ray/Dropbox/ETHEREUM/people-power-ico/contracts/PeoplePowerTokenSale.sol",
  "compiler": {
    "name": "solc",
    "version": "0.5.16+commit.9c3226ce.Emscripten.clang"
  },
  "schemaVersion": "3.3.3",
  "updatedAt": "2021-02-03T23:40:32.571Z",
  "networkType": "ethereum",
  "devdoc": {
    "methods": {}
  },
  "userdoc": {
    "methods": {}
  }
}